:100000000C94AB010C943D040C94D3010C94D301DB
:100010000C94D3010C94D3010C94D3010C94D30110
:100020000C94D3010C94D3010C94D3010C94D30100
:100030000C94D3010C94D3010C94D3010C94D301F0
:100040000C94D3010C94D3010C94D3010C94D301E0
:100050000C94D3010C94D3010C94D3010C94D301D0
:100060000C94D3010C94D3010C94D3010C94D301C0
:100070000C94D3010C94D3010C94D3010C94D301B0
:100080000C94D3010C94D3010C94D3010C94D301A0
:100090000C94D3010C94D3010C94D3010C94D30190
:1000A0000C94D3010C94D3010C94D3010C94D30180
:1000B0000C94D30100002110422063308440A550ED
:1000C000C660E770088129914AA16BB18CC1ADD19E
:1000D000CEE1EFF13112100273325222B552944246
:1000E000F772D662399318837BB35AA3BDD39CC3EE
:1000F000FFF3DEE36224433420040114E664C77492
:10010000A44485546AA54BB528850995EEE5CFF53D
:10011000ACC58DD55336722611163006D776F666E5
:100120009556B4465BB77AA719973887DFF7FEE78D
:100130009DD7BCC7C448E5588668A77840086118B1
:1001400002282338CCC9EDD98EE9AFF948896999DD
:100150000AA92BB9F55AD44AB77A966A711A500A85
:10016000333A122AFDDBDCCBBFFB9EEB799B588B2D
:100170003BBB1AABA66C877CE44CC55C222C033CD1
:10018000600C411CAEED8FFDECCDCDDD2AAD0BBD7D
:10019000688D499D977EB66ED55EF44E133E322E25
:1001A000511E700E9FFFBEEFDDDFFCCF1BBF3AAFCD
:1001B000599F788F8891A981CAB1EBA10CD12DC12B
:1001C0004EF16FE18010A100C230E32004502540C1
:1001D00046706760B9839893FBA3DAB33DC31CD321
:1001E0007FE35EF3B1029012F322D2323542145211
:1001F00077625672EAB5CBA5A89589856EF54FE56D
:100200002CD50DC5E234C324A01481046674476460
:1002100024540544DBA7FAB79987B8975FE77EF7C0
:100220001DC73CD7D326F2369106B01657667676B0
:10023000154634564CD96DC90EF92FE9C899E9898C
:100240008AB9ABA94458654806782768C018E10800
:100250008238A3287DCB5CDB3FEB1EFBF98BD89B60
:10026000BBAB9ABB754A545A376A167AF10AD01A50
:10027000B32A923A2EFD0FED6CDD4DCDAABD8BADAC
:10028000E89DC98D267C076C645C454CA23C832CA0
:10029000E01CC10C1FEF3EFF5DCF7CDF9BAFBABF00
:1002A000D98FF89F176E367E554E745E932EB23EF0
:1002B000D10EF01E4E6F6E2D636F6E746967756F91
:1002C00075732066696C650046696C65206F7065A2
:1002D0006E206661696C6564004552524F5200475A
:1002E000656F6D65747279203E2066696C650049A2
:1002F0006E636F6D7061742067656F6D6574727980
:1003000000556E7265636F676E697A656420696D0A
:10031000616765004E6F7420666F756E640052658C
:100320006164205344206661696C656400455252E3
:100330004F52004E6F206469736B0049444C240097
:1003400042535924003A2000464444454D5500008C
:1003500019151D158E1511241FBECFEFD8E0DEBF75
:10036000CDBF11E0A0E0B1E0EAE9FCE202C00590F7
:100370000D92AE31B107D9F723E0AEE1B1E001C093
:100380001D92A73CB207E1F711E0CBEAD1E004C02F
:100390002197FE010E94D415C83AD107C9F70E94DF
:1003A00035150C944B160C940000CF93DF93EC01A1
:1003B000BC01665D7F4F805C9F4F0E94E213FE018F
:1003C000EF5AFF4F91838083892B21F481E09BA911
:1003D000911101C080E0DF91CF910895CF93DF9319
:1003E000EC01CE010E94D501882319F09AA994FD51
:1003F000F8CFDF91CF9108950F931F93CF93DF93A1
:10040000EC018C010D5A1F4FF801118210820E94DD
:10041000450281110EC090E080E0DF91CF911F91E5
:100420000F910895A895F80180819181019691839B
:100430008083CE010E94EE018111F4CFF80180810A
:100440009181EBCFCF93DF93EC010E94FA119C01D5
:10045000FE01EF5AFF4F9183808380E0232B61F4EC
:10046000319781E0808333961182108262E071E0DF
:10047000CE010E94FC0181E0DF91CF910895FC0143
:10048000E05BFF4F10820C942202CF92DF92EF923A
:10049000FF920F931F93CF93DF93EC018B016C01BD
:1004A00080E4C80ED11CC6010E949B139C017E01F2
:1004B000E1E5EE0EF11CF7019183808381E02115C7
:1004C0003105B1F023703327232B11F480E010C0E5
:1004D000CE010E9422028823C9F3B801C6010E94FE
:1004E0009B139C01F7019183808381E0232B71F79B
:1004F000DF91CF911F910F91FF90EF90DF90CF9000
:100500000895CF92DF92FF920F931F93CF93DF93C3
:100510008C01D42FF52E0E944502882351F06801EA
:1005200083E3C80ED11CC8010E94D501C82F8111D8
:100530000AC0C0E08C2FDF91CF911F910F91FF90E7
:10054000DF90CF900895A8956D2F7F2DC6010E9452
:100550000216892B41F7EECFCF93DF93EC01C396C0
:100560000E944113CF5ADF4F9983888348EC52E0B1
:10057000892B31F40E94D414892B71F444EB52E09E
:1005800069ED72E089EA93E00E94CD0660E070E0D8
:10059000CB01DF91CF910895DF91CF910C94B814E6
:1005A000CF93DF93EC018AA984FF05C06BE580E05F
:1005B00091E00E94F107BE016D5C7F4F80E091E009
:1005C0000E945F088AA984FF07C06DE580E091E082
:1005D000DF91CF910C94F107DF91CF910895CF93E4
:1005E000DF93FC011582168217821086DC011996B2
:1005F0008DE0ED0119928A95E9F780E5828382E129
:1006000083838081807C81628083DF91CF91089594
:100610004F925F926F927F92BF92CF92DF92EF9252
:10062000FF920F931F93CF93DF93CDB7DEB76297FF
:100630000FB6F894DEBF0FBECDBF7C01B62EC72E1D
:10064000FC01808181FF03C0C7010E94EF024B2D96
:100650005C2D63E071E08EE191E00E948102D82E72
:1006600081111DC044E153E06DE273E089EA93E03B
:100670000E94CD068D2D62960FB6F894DEBF0FBE98
:10068000CDBFDF91CF911F910F91FF90EF90DF9041
:10069000CF90BF907F906F905F904F9008958EE1C4
:1006A00091E00E94AC02AB01BC01F7014583568387
:1006B000878370878091500180FF03C080818460B0
:1006C000808302E110E026E330E0CE0101960E9433
:1006D000B00D4EE153E0892BA1F58981863451F4A8
:1006E0008A81813439F48B81843521F48C81813382
:1006F00009F470C0009148011091490120914A010C
:1007000030914B01F9E03695279517950795FA95A5
:10071000D1F7003AF5E01F0709F449C0D0F4003DD5
:1007200082E0180709F44AC080E50115E5E01E07DC
:1007300009F446C088E20038124009F441C041E0A3
:1007400053E06DE273E089EA93E00E94CD06D12C7C
:1007500091CF00342BE0120729F1003886E1180709
:1007600041F00036194059F780E5F70182838FE0A8
:1007700004C080E5F701828384E2838380E184837F
:1007800080818F7C80628083D70119968DE0EB2D6C
:10079000FC2D01900D928A95E1F7F701808182602E
:1007A000808368CF80E5F701828382E1E6CF80E530
:1007B000F701828389E0838380E2E1CF88E2F8CF8A
:1007C000F701828380E1838380E2848380818F7C50
:1007D0008061D9CFF701458156816781708502E13B
:1007E00010E02BE030E0CE0101960E94B00D89812F
:1007F0009A818115924051F488899989039734F43C
:100800002E853F852F3F310521F01CF04FEE52E041
:1008100098CFF70180818F7C8062808389859A855B
:100820002C01712C612C409148015091490160913B
:100830004A0170914B01E9E0769567955795479588
:10084000EA95D1F7441555056605770518F44FED7F
:1008500052E077CFF7012383B9017727660F771F1F
:100860000E949315628380E22F3008F080E1F70147
:1008700084838ACF0C94EF0208958F938FB78F9360
:100880004A9907C04B9B0EC080918C018150809388
:100890008C0180918B01846080938B018F918FBF3D
:1008A0008F91189580918C018F5FF1CF10928D01FF
:1008B000F8948AB183708AB984B1807C84B987B195
:1008C000807F87B95F98299888B1817F88B98BB17B
:1008D00080638BB98BB18C648BB9289A409AE9E616
:1008E000F0E080818C7F8083808182608083E89AC1
:1008F00081E080938D017894089508950895CF93B1
:10090000DF93D42FC22F9EEF9093A1038093A20375
:100910006093A30381E0840F8093A4032093A50335
:1009200065E070E081EA93E00E94DE08982789275D
:1009300098279093A7038093A6039EE49093A8031F
:100940008BEF80939A0190939D03C13091F0C23058
:1009500069F461E072E08AE991E00E94DE0898277C
:100960008927982790939C0380939B038AE991E0C1
:100970003AC0D0FD23C061E071E08AE991E00E94B5
:10098000DE0820919B0230919C0240919D022093B1
:100990009E0330939F034093A003982789279827AD
:1009A00090939C0380939B0383E0EBE9F3E0ABE936
:1009B000B2E001900D928A95E1F7D8CF90919A021A
:1009C0009093A00380939A0261E071E08AE992E03B
:1009D0000E94DE0898278927982790939C0380938C
:1009E0009B038AE992E0DF91CF9108958091A5035E
:1009F0008230B9F461E072E08AE991E00E94DE0899
:100A00009C0140919B03832F992748171906A9F54C
:100A100090919C03332781E09217130679F580E0CB
:100A20000895813071F78091A40361E071E080FD49
:100A30001AC08AE991E00E94DE089C0180919B0225
:100A400080939B0380919C0280939C0380919E03E2
:100A500090919F03A091A00380939B0290939C028E
:100A6000A0939D02CECF8AE992E00E94DE089C010D
:100A70008091A00380939A02C4CF81E00895CF9320
:100A8000DF93EC010E943A0480918D01811102C034
:100A90000E94560480E28C831F8A1E8ADF91CF91C8
:100AA00008950F931F93CF93DF9300D000D0CDB75D
:100AB000DEB78C01FC018185811111C063E373E015
:100AC0008EE891E00E94E9158EE891E00F900F907A
:100AD0000F900F90DF91CF911F910F91089583E4B4
:100AE00080938E0110928F0182814AE0BE016F5F78
:100AF0007F4F90E00E941616BE016F5F7F4F8EE819
:100B000091E00E94F71565E071E08EE891E00E94A7
:100B1000F715F80183814AE0BE016F5F7F4F90E0D7
:100B20000E941616BE016F5F7F4F8EE891E00E9413
:100B3000F715CACFFC01AB01808181FF18C080731B
:100B4000803281F4052E000C660B770B858196812F
:100B5000A781B085480F591F6A1F7B1F8BE991E061
:100B60000C94120E803119F455954795EBCF81E026
:100B700090E00895FC01AB01808181FF18C0807373
:100B8000803281F4052E000C660B770B85819681EF
:100B9000A781B085480F591F6A1F7B1F8BE991E021
:100BA0000C94540E803119F455954795EBCF81E0A4
:100BB00090E008950C940803CF93DF93EC010E941A
:100BC000EF021F8A1E8ADF91CF910895AF92BF92E4
:100BD000CF92DF92EF92FF920F931F93CF93DF9309
:100BE000EC01888180FF07C03B9A8881982F9A701A
:100BF00011F08E7F8883888182FF97C03A9A0E9485
:100C0000F90810E0DD24D39430E8E32EF12C209194
:100C10008B01237030E04D99A0C089B1829581701D
:100C20008D258217130609F09AC0A89580918B0133
:100C300082FF1BC080918B018B7F80938B01809101
:100C40008C012E893F89280F311D87FD3A953F8BF6
:100C50002E8B10928C0137FF6AC01F8A1E8A399A28
:100C600088818A7009F472C03B9809B106FB00279D
:100C700000F90D258E899F89880F991F800F911D7E
:100C80002B81289F5001299FB00C1124A10EB11C6B
:100C9000B501CE010E949A05288122952370412F2B
:100CA000602F8E890E947F04C82E092F61EA73E0AD
:100CB0008C810E94360B288122952370A70102C0E7
:100CC000440F551F2A95E2F74C5F5F4F6C2D702F34
:100CD0008C810E945C0A8823D9F10E942009288116
:100CE00022952370A70102C0440F551F2A95E2F7F1
:100CF0004D5F5F4F6C2D702F8C810E942E09082F45
:100D00000E94F908011108C00E94F604811104C074
:100D1000B501CE010E94BA05309BFECF1F5F8B81CB
:100D2000181708F474CF10E072CF3A9868CF8A8110
:100D300090E0281739071CF001979F8B8E8B8E89C6
:100D40009F89892B09F48BCF39988ACF3B9A8DCF15
:100D500066E38C810E942A0CE1CF80E062CF4D993E
:100D60001AC089B18295817091E0892790918B0199
:100D70009C7F892B80938B013B983A9839985798A0
:100D8000DF91CF911F910F91FF90EF90DF90CF9067
:100D9000BF90AF90089580E0E9CFCF93DF93D42F39
:100DA000C52F80E091E00E949F0865E473E080E039
:100DB00091E00E949F086D2F7C2F80E091E00E94BF
:100DC0009F086AE080E091E0DF91CF910C94F107F9
:100DD000FC0111821082089569E071E080E091E0E9
:100DE0000C945F0880917C01882359F06CE771E0D6
:100DF00080E091E00E945F0860E280E091E00E9464
:100E0000F10783E791E00E945105BC0180E091E089
:100E10000E945F0864E280E091E00C94F107EF9299
:100E2000FF920F931F93CF93DF93CDB7DEB72D972C
:100E30000FB6F894DEBF0FBECDBF8C0180E091E00D
:100E40000E940808853609F4B6C054F58E3491F135
:100E50009CF4853409F4AFC08C3409F485C02D9618
:100E60000FB6F894DEBF0FBECDBFDF91CF911F91BB
:100E70000F91FF90EF900895803509F45CC08335A1
:100E800071F7C8012D960FB6F894DEBF0FBECDBF27
:100E9000DF91CF911F910F91FF90EF900C94F2068C
:100EA000803709F448C00CF042C08C3609F45CC0AD
:100EB0008E36A9F6F80180819181019697FD42C096
:100EC000918380838091710190917201F80120815A
:100ED00031812817390714F09183808364E071E031
:100EE0008EE191E00E944502F12CE12CF801808115
:100EF00091818E159F054CF580915101882369F1F0
:100F000061E571E080E091E00E945F0864E280E0CA
:100F100091E02D960FB6F894DEBF0FBECDBFDF91E6
:100F2000CF911F910F91FF90EF900C94F1078337B1
:100F300009F4A7CF94CFF801808191810297918322
:100F40008083B8CF11821082BDCF8EE191E00E94E4
:100F5000EE01FFEFEF1AFF0AC9CF68E473E080E00B
:100F600091E00E949F08D2CF8DE0E1E5F1E0DE0143
:100F7000119601900D928A95E1F789818823B1F04D
:100F8000BE016F5F7F4F83E791E00E94DA0583E740
:100F900091E00E945105BC0180E091E00E945F0851
:100FA00064E280E091E00E94F10759CF83E791E08D
:100FB0000E943C04ECCF61E171E080E091E00E948E
:100FC0005F0883E791E02D960FB6F894DEBF0FBE61
:100FD000CDBFDF91CF911F910F91FF90EF900C94B7
:100FE000DC056A3039F48091C00085FFFCCF8DE0CC
:100FF0008093C6008091C00085FFFCCF6093C6003F
:1010000090E080E00895682F80E091E00C94F10773
:101010008091C00087FFFCCF8091C60090E00895CA
:1010200080E091E00C940808ECEAF3E083E098E0BB
:101030009187808780E198E09387828783E083832C
:10104000AAEBB3E01596FC93EE9314971396FC93DA
:10105000EE931297ED93FC930895242F352FAB0157
:10106000211581EE38074105510511F12A3E81E035
:10107000380741055105E0F082E08093C00060E050
:1010800079E08DE390E00E94A715215031094109D4
:10109000510956954795379527953093C50020936C
:1010A000C4008091C10088618093C1000C94140831
:1010B0001092C00060E874E88EE190E0E4CF0F93F6
:1010C0001F93CF93DF938C01EB01699116162CF0DF
:1010D000DF91CF911F910F910895D801ED91FC916F
:1010E0000190F081E02DC8010995EFCF0F931F9378
:1010F000CF93DF93CDB7DEB72C970FB6F894DEBF52
:101100000FBECDBF8C01E42F352F422F50E0BE0122
:101110006F5F7F4F8E2F932F0E940B16BE016F5F64
:101120007F4FC8010E945F082C960FB6F894DEBF6F
:101130000FBECDBFDF91CF911F910F9108950F93F7
:101140001F93CF93DF938C01EB01FE0164912196F5
:1011500016162CF0DF91CF911F910F910895D801B1
:10116000ED91FC910190F081E02DC8010995EDCF42
:101170001F93CF93DF93EC01862F82958F70162FEC
:101180001F70603AC8F460E3680F80E31A3008F01B
:1011900087E3180FE881F9810190F081E02DCE01FD
:1011A0000995E881F9810190F081E02D612FCE0150
:1011B000DF91CF911F91099467E3E6CFAC019B01CA
:1011C00084EB9DEC121613060CF00895DA01E92F5A
:1011D000FF274D91E427EE0FFF1FEC54FF4F459181
:1011E0005491982F88278427952721503109AD01E4
:1011F000E9CFCF93DF93A1E8B0E091E09C932198F1
:10120000E0E8F0E080EC8083C2E8D0E0888180688C
:1012100088831082219A96BB8C9188608C9310925F
:1012200085001092840080E290E090938900809382
:10123000880082E086BB80E48083DF91CF910895AF
:10124000109285001092840081E286BB109280008B
:1012500081E080938100109282000895FF920F93A5
:101260001F93FB01DA011197082F0695080F080F4D
:10127000102F180F80E0F82EB09A40E0B09B05C008
:10128000B09AFA9411F483E013C1439530990FC1D9
:10129000B59BFECF30918600B59A632F621B232F3A
:1012A000601760F3611748F7403538F3B59BFECF00
:1012B00030918600B59A632F621B232F611708F4C3
:1012C000DCCFB59BFECF30918600B59A632F621BB1
:1012D000232F061708F4611708F0CFCFB59BFECF78
:1012E00030918600B59A632F621B232F611708F493
:1012F000C4CFB59BFECF30918600B59A632F621B99
:10130000232F061708F4611708F0B7CFB59BFECF5F
:1013100030918600B59A632F621B232F601708F067
:10132000ACCFB59BFECF30918600B59A632F621B80
:10133000232F611708F4A1CFB59BFECF3091860013
:10134000B59A632F621B232F061708F4611708F064
:1013500094CFB59BFECF30918600B59A632F621B68
:10136000232F611708F489CFB59BFECF30918600FB
:10137000B59A632F621B232F061708F4611708F034
:101380007CCFB59BFECF30918600B59A632F621B50
:10139000232F601708F071CFB59BFECF30918600E8
:1013A000B59A632F621B232F611708F466CFB59B94
:1013B000FECF30918600B59A632F621B232F06174C
:1013C00008F4611708F059CFB59BFECF3091860025
:1013D000B59A632F621B232F611708F44ECFB59B7C
:1013E000FECF30918600B59A632F621B232F06171C
:1013F00008F4611708F041CFBB230AF459C058E044
:10140000B59BFECF30918600B59A632F621B232FC8
:101410006017F0F0611798F0440F5A9529F4419342
:1014200058E0A150B04052F0440F41605A9529F461
:10143000419358E0A150B0400AF0E2CF39C0440FC8
:101440005A9529F4419358E0A150B040BAF30AC02C
:10145000440F41605A9529F4419358E0A150B0409F
:101460006AF3CECFB59BFECF30918600B59A632F3D
:10147000621B232F601790F0440F5A9529F4419373
:1014800058E0A150B040A2F0440F41605A9529F4B1
:10149000419358E0A150B0405AF0B2CF440F5A9552
:1014A00029F4419358E0A150B04012F0DBCF8FEF08
:1014B0001F910F91FF9008950F931F93FB01DA0185
:1014C000682F062F060F0A95102F160F212F260FB3
:1014D00080E040E04093840040E6309BBDC0009334
:1014E0008800B19BFECF30E830938200B19A4A95D4
:1014F000A1F710938800B19BFECF30E830938200B3
:10150000B19A20938800B19BFECF30E830938200DF
:10151000B19A10938800B19BFECF30E830938200DF
:10152000B19A20938800B19BFECF30E830938200BF
:10153000B19A10938800B19BFECF30E830938200BF
:10154000B19A00938800B19BFECF30E830938200BF
:10155000B19A20938800B19BFECF30E8309382008F
:10156000B19A10938800B19BFECF30E8309382008F
:10157000B19A20938800B19BFECF30E8309382006F
:10158000B19A10938800B19BFECF30E8309382006F
:10159000B19A00938800B19BFECF30E8309382006F
:1015A000B19A20938800B19BFECF30E8309382003F
:1015B000B19A10938800B19BFECF30E8309382003F
:1015C000B19A20938800B19BFECF30E8309382001F
:1015D000B19A10938800B19BFECF30E8309382001F
:1015E000B19A0093880050E05A952AF4A150B04077
:1015F000A2F1419157E0441F30F030918800360F3E
:101600003093880009C0B19BFECF30E83093820050
:10161000B19A00938800E8CF5A952AF4A150B040BF
:10162000E2F0419157E0441F48F0B19BFECF30E813
:1016300030938200B19A00938800EECF30918800F9
:10164000360F30938800B19BFECF30E83093820094
:10165000B19A00938800C8CF8FEFB19BFECF30E8DE
:1016600030938200B19A1F910F9108950F931F93A9
:10167000FB01082F080F0A95102F180F212F280F94
:10168000DF0113963C913A9509F03AC0579A48E326
:101690000E94E70B109388000E94200C4FE50E94E7
:1016A000E00B43E0109388000E94200C04C02093BC
:1016B00088000E94200C009388000E94200C109348
:1016C00088000E94200C209388000E94200C109318
:1016D00088000E94200C4A9551F7209388000E94B0
:1016E000200C45E00E94E00B109388000E94200C23
:1016F00041E3009388000E94200C0E94EB0B579856
:10170000109388000E94200C4FE50E94E00B42E0FD
:101710000E94040C009388000E94200C20938800F3
:101720000E94200C109388000E94200C20938800B7
:101730000E94200C10938800B19BFECF30E83093BC
:101740008200B19A0093880050E0A8E05A9522F4F4
:10175000A15092F1419157E0441F30F03091880040
:10176000380F3093880009C0B19BFECF30E830932A
:101770008200B19A00938800E9CF5A9522F4A150D3
:10178000DAF0419157E0441F48F0B19BFECF30E8BA
:1017900030938200B19A00938800EFCF3091880097
:1017A000380F30938800B19BFECF30E83093820031
:1017B000B19A00938800CACF45E10E94E70B47C069
:1017C000009388000E94200C4A95D1F70895109349
:1017D00088000E94200C109388000E94200C309BEF
:1017E00036C0109388000E94200C109388000E943D
:1017F000200C009388000E94200C009388000E9417
:10180000200C4A9521F70895109388000E94200C1F
:1018100004C0009388000E94200C209388000E943E
:10182000200C109388000E94200C209388000E94B6
:10183000200C109388000E94200C4A9551F70895BF
:10184000B19BFECF30E830938200B19A08951F918A
:101850000F9108950F931F93082F080F0A95102FCB
:10186000180F212F280F462F0E94E70B1F910F9171
:1018700008958EBD0DB407FEFDCF08958FEF0E9431
:10188000390C8EB50895FF920F931F93CF93DF937A
:10189000C82FD42F152F062FF72E87FF09C040E041
:1018A00050E0BA0187E70E94430C823030F5CF77D1
:1018B0002A9A0E943E0C2A980E943E0C8C2F0E946D
:1018C000390C8F2D0E94390C802F0E94390C812FEA
:1018D0000E94390C8D2F0E94390C85E9C03421F00B
:1018E00087E8C83409F081E00E94390CCAE00E9400
:1018F0003E0C87FF02C0C150D1F7DF91CF911F91FD
:101900000F91FF9008950F931F93CF93DF93462F6E
:10191000572FBC01411551056105710501F18091F9
:10192000C40383FD07C089E0440F551F661F771F5E
:101930008A95D1F788E50E94430CC1E081110DC062
:101940008FEF0E94390C8EEF0E94390C80E092E0FC
:101950009093C3038093C203C0E0D0E012C0C09153
:10196000C203D091C303CE3F8FEFD80781F40E940A
:101970003E0C8F718530E9F0C1E0D0E02A9A0E94D8
:101980003E0CCE01DF91CF911F910F91089580E021
:101990000E94390C2197E7CFCE010197F1F7015052
:1019A00011090E943E0C8F3F49F001151105A1F766
:1019B000E3CF08E813E1C0E9D1E0F3CFC1E0012BA8
:1019C000E1F2C0E0DACFAF92BF92CF92DF92EF9216
:1019D000FF920F931F93CF93DF9300D000D0CDB72A
:1019E000DEB78091C403882339F01A9905C060E0FE
:1019F00070E0CB010E94830C2A9A229A239A259A9E
:101A0000229A83E58CBD1DBC2A9A1AE00E943E0CE6
:101A10001150E1F740E050E0BA0180E40E94430C2D
:101A2000182F8130D9F01092C40383E58CBD1DBC02
:101A300010E02A9A0E943E0C81E0111180E00F9084
:101A40000F900F900F90DF91CF911F910F91FF900A
:101A5000EF90DF90CF90BF90AF9008954AEA51E0A9
:101A600060E070E088E40E94430C813009F04BC0D4
:101A70008E010F5F1F4F6E0185E0C80ED11C7801EB
:101A80000E943E0CF70181937F01EC15FD05C1F723
:101A90008B81813041F68C818A3A29F620E1E22E51
:101AA00027E2F22E30E9A32EBB24B39408C0C5016F
:101AB0000197F1F7F1E0EF1AF10809F4B4CF40E033
:101AC00050E060E070E489EE0E94430C8111EFCF9A
:101AD00040E050E0BA018AE70E94430C8111A3CF95
:101AE0000E943E0CF80181938F01EC15FD05C1F7B2
:101AF000898114E086FD1CE01093C40380E58CBD51
:101B000081E08DBD96CF40E050E0BA0189EE0E94A1
:101B1000430C01E4823010F412E009EE80E1E82E7B
:101B200087E2F82E90E9C92EDD24D39440E050E0FE
:101B3000BA01802F0E94430C81110AC040E052E09C
:101B400060E070E080E50E94430C81116CCFD4CF3F
:101B5000C6010197F1F7F1E0EF1AF10839F763CF09
:101B6000AF92BF92CF92DF92EF92FF920F931F93AB
:101B7000CF93DF936C01590178018091C40383FDF9
:101B800007C089E0440F551F661F771F8A95D1F75C
:101B900081E50E94430C811108C0C0E4DCE90E9489
:101BA0003E0C8F3F29F42197D1F7C1E0D0E01EC051
:101BB0008E3FD9F7C2E0D2E0CE19DF09CA19DB099E
:101BC000A114B10411F5C114D10429F15601EFEFAC
:101BD000CE1ADE0A0E943E0CF5018083F1E0EF1A76
:101BE000F108A1F70E943E0C2197E1F72A9A0E9482
:101BF0003E0CCE01DF91CF911F910F91FF90EF909E
:101C0000DF90CF90BF90AF9008950E943E0C81E08E
:101C1000A81AB108D5CF0E943E0C81E0E81AF1085D
:101C2000D1F7E0CFEF92FF920F931F93CF93DF9303
:101C3000EC018091C40383FD07C089E0440F551F68
:101C4000661F771F8A95D1F781E50E94430C882390
:101C500069F0C1E0D0E02A9A0E943E0CCE01DF91EB
:101C6000CF911F910F91FF90EF90089500E41CE930
:101C70000E943E0C8F3F21F401501109C9F7E9CFB2
:101C80008E3F39F78E011E5F7E0121960E943E0C29
:101C9000F7018083C017D107B9F70E943E0C0E945C
:101CA0003E0CD0E0C0E0D7CFEF92FF920F931F938E
:101CB000CF93DF93F82EE92E8091C40383FD07C0F4
:101CC00089E0440F551F661F771F8A95D1F788E575
:101CD0000E94430C882369F0C1E0D0E02A9A0E9458
:101CE0003E0CCE01DF91CF911F910F91FF90EF90AD
:101CF00008958FEF0E94390C8EEF0E94390C00E09E
:101D000012E01093C1030093C0030115110589F47B
:101D100080E00E94390C80E00E94390CC4ECD9E0CC
:101D20000E943E0C8F71853071F02097A9F22197A7
:101D3000F7CFCF2DDE2D89910E94390C015011096A
:101D4000FC2EED2EDECFCD2B39F208E813E1C0E9F1
:101D5000D1E005C0CE010197F1F7015011090E94B1
:101D60003E0C8F3F21F001151105A1F7B5CFC1E061
:101D7000012B09F4B2CFC0E0B0CFCF93DF9300D0F6
:101D800000D0CDB7DEB7FC01208131814281538183
:101D9000CA01B9010F900F900F900F90DF91CF9172
:101DA0000895CF93DF9300D000D0CDB7DEB769831D
:101DB0007A838B839C83E091C503F091C6039B01DA
:101DC000AC01225031094109510986819781A085D2
:101DD000B1850297A109B109281739074A075B079E
:101DE00018F5A281B0E00E94C91569837A838B83BC
:101DF0009C8382899389A489B58929813A814B8101
:101E00005C81280F391F4A1F5B1F29833A834B834C
:101E10005C8369817A818B819C810F900F900F90F8
:101E20000F90DF91CF91089519821A821B821C8234
:101E3000F0CF0F931F93CF93DF9300D000D0CDB797
:101E4000DEB7FC01A091C503B091C6038C9183302D
:101E5000E1F484899589B0E0A0E0DC019927882726
:101E6000428D538D70E060E08A019B01082B192B95
:101E70002A2B3B2BC901B8010F900F900F900F90A8
:101E8000DF91CF911F910F91089580E090E0DC01E8
:101E9000E7CF0F931F93CF93DF93EC01E091C5033E
:101EA000F091C603198218826C817D818E819F8199
:101EB000613071058105910581F1068117812085C9
:101EC0003185601771078207930738F56115710531
:101ED0008105910539F42081233021F466857785C9
:101EE00080899189688779878A879B8761157105C1
:101EF0008105910569F00E94D10E6C877D878E87E0
:101F00009F8790E080E0DF91CF911F910F9108951E
:101F10006685778580899189F0CF81E090E0F3CF65
:101F20004F925F926F927F92AF92BF92CF92DF9269
:101F3000EF92FF920F931F93CF93DF93CDB7DEB74E
:101F400028970FB6F894DEBF0FBECDBF6B017C01A2
:101F5000A090C503B090C60382E0C816D104E10486
:101F6000F10428F461E070E080E090E05CC0F501ED
:101F700086819781A085B185C816D906EA06FB0639
:101F800088F78081823009F463C0833009F47CC013
:101F9000813041F72B0156944794460E571E92010B
:101FA0003170452C55244694712C612C4285538503
:101FB00064857585440D551D661D771D02E010E092
:101FC000CE0101962F3FF1E03F07D9F401E010E088
:101FD0002FEF31E0CE0101960E94B00D892B11F652
:101FE000F50142855385648575854F5F5F4F6F4F5F
:101FF0007F4F440D551D661D771D30E020E0CE015A
:1020000002960E94B00D892B09F0ACCF69817A81CC
:10201000C0FC02C07F7005C0E4E076956795EA9544
:10202000E1F790E080E028960FB6F894DEBF0FBE8F
:10203000CDBFDF91CF911F910F91FF90EF90DF9077
:10204000CF90BF90AF907F906F905F904F9008952A
:102050009B013327220F331F77276F2D5E2D4D2DC8
:1020600082859385A485B585480F591F6A1F7B1FFC
:1020700002E010E0CE0101960E94B00D892B09F01C
:1020800071CF69817A81CDCF9B012F773327220FC2
:10209000331F220F331FB701A60197E0769567958E
:1020A000579547959A95D1F782859385A485B585EF
:1020B000480F591F6A1F7B1F04E010E0CE010196F4
:1020C0000E94B00D892B09F04DCFCE0101960E94E0
:1020D000BD0E9F70A8CFCF92DF92EF92FF920F9329
:1020E0001F93CF93DF93CDB7DEB72A970FB6F8943F
:1020F000DEBF0FBECDBF8D839E83E090C503F09001
:10210000C603AD81BE810D911C910F5F1F4F89F4F5
:1021100083E090E02A960FB6F894DEBF0FBECDBFE5
:10212000DF91CF911F910F91FF90EF90DF90CF90B3
:102130000895ED81FE8184859585A685B7850097F4
:10214000A105B10529F398012F703327232BC9F47A
:102150000196A11DB11D84879587A687B7878085C5
:102160009185A285B38589839A83AB83BC83892BB0
:102170008A2B8B2B69F4F701848195810817190745
:1021800038F6AD81BE810D931C9390E080E0C2CF04
:10219000D70112968C918150990B980144E03695A5
:1021A00027954A95E1F782239323892B51F769817B
:1021B0007A818B819C810E94900F6230710581052C
:1021C0009105E0F0F701C680D780E084F1846C15BA
:1021D0007D058E059F0508F09BCFAD81BE811896C9
:1021E0006D937D938D939C931B970E94D10EED81EF
:1021F000FE816487758786879787C3CF81E090E0EB
:1022000089CFCF92DF92EF92FF920F931F93CF93DC
:10221000DF93EC016A017B0102E010E02EEF31E078
:102220000E94B00D892B31F58881998185359A4AB4
:1022300059F526E330E0A601B701CE010E94B00DAA
:10224000892B29F4888199818634914489F002E0B0
:1022500010E022E530E0A601B701CE010E94B00DEA
:10226000892BA1F481E0288139812634314419F485
:1022700080E001C083E0DF91CF911F910F91FF902B
:10228000EF90DF90CF90089582E0F5CF81E0F3CF1B
:10229000CF92DF92EF92FF920F931F93CF93DF9332
:1022A000EC017B01CA016C01DC012C91019620320A
:1022B000D1F32F3209F46C011C821D821E821F8211
:1022C000F6018081803208F062C0CE010E94490F81
:1022D0009C01D7011C92C901DF91CF911F910F91F1
:1022E000FF90EF90DF90CF900895C40ED11C81E055
:1022F000913208F080E0F8018387CE010E94490FF7
:102300009C01892B41F7288139812F70332785E083
:10231000220F331F8A95E1F74C855D856E857F8599
:1023200000E210E0C7010E94B00D9C01892B09F06A
:1023300056C0D7018C91882309F454C01B964C9148
:1023400043FD11C08A819B81BC01655F7F4FFC0109
:102350001E2D5F2D6E177F0769F0A12FB52F1D91E0
:102360005191151721F0CE010E946B10C9CF1A2F81
:102370005B2FF0CFFC0183858111ADCF44FF32C0CC
:10238000C7010E94190F6C837D838E839F830A810E
:102390001B814BE050E060E270E0C8010E94F01544
:1023A00020E090E088E041E0490FF601E90FF11DDF
:1023B0009081913208F499CF9F3209F496CF9E32E2
:1023C000A1F0281708F091CFF801E20FF11D9083DA
:1023D000382F81E0820F282F942F832FE4CF21E024
:1023E00030E079CF23E030E076CF883009F07DCF40
:1023F0003BE0F1CF4F925F926F927F929F92AF92AC
:10240000BF92CF92DF92EF92FF920F931F93CF93E1
:10241000DF93CDB7DEB7E0970FB6F894DEBF0FBEFF
:10242000CDBF5C011092C6031092C5030E94E30C5D
:1024300002E010E080FD1FC040E050E0BA019E01C4
:102440002F5F3F4F3901C9010E940111562C972C73
:10245000C12CD12C76018130B1F500E110E02EEBDA
:1024600031E040E050E0BA01C3010E94B00D892B79
:10247000C9F001E010E0C801E0960FB6F894DEBFA5
:102480000FBECDBFDF91CF911F910F91FF90EF90C5
:10249000DF90CF90BF90AF909F907F906F905F90B4
:1024A0004F9008958D81811103C006E010E0E3CFC5
:1024B000CE0109960E94BD0E6B017C01BC01A601F4
:1024C000C3010E9401118330A1F28111EECF04E219
:1024D00010E02DE030E0B701A601852D992D0E9476
:1024E000B00D8C01892B29F68A859B859C0150E0D3
:1024F00040E0892B31F4CE0148960E94BD0E9B012D
:10250000AC01AC81B0E00E94C91569A77AA78BA77E
:102510009CA78A819B819C0150E040E02DA33EA3B3
:102520004FA358A72C013A014C0C5D1C6E1C7F1C5C
:10253000D5011A964D925D926D927C921D9799806D
:1025400012969C921297ED80FE801596FC92EE9268
:1025500014978F8198859C0150E040E02DA73EA7FD
:102560004FA758AB892B41F4CE0144960E94BD0E73
:102570006DA77EA78FA798AB84E0F694E7948A9521
:10258000E1F76701F12CE12C8DA19EA1AFA1B8A5C7
:102590008C0D9D1DAE1DBF1D29A53AA54BA55CA5A3
:1025A000820F931FA41FB51F2DA53EA54FA558A9A7
:1025B000281B390B4A0B5B0B2DA33EA34FA358A737
:1025C000292D30E050E040E06DA17EA18FA198A5BB
:1025D0000E94A715DA01C9010296A11DB11DF501DE
:1025E00086839783A087B187265F3F4041095109C1
:1025F0002F3F3F4E41055105E8F1873F2FEF9207EE
:10260000A105B10528F183E0D5018C93CE01809618
:102610000E94BD0E462F572FBC01F50146875787F4
:10262000608B718BC40CD51CE61CF71C29A53AA540
:102630004BA55CA5C20ED31EE41EF51EC28AD38A2A
:10264000E48AF58A1182B092C603A092C50313CF23
:10265000873F9F40A105B10508F027CF81E0D50154
:102660008C9349A55AA56BA57CA5440D551D661DE7
:10267000771DD3CF873F9F4FA105B10520F682E09C
:10268000EECFEF92FF920F931F93CF93DF93CDB7CF
:10269000DEB7EC970FB6F894DEBF0FBECDBFAC012E
:1026A000E090C503F090C60305E010E0E114F104EA
:1026B00089F1D70111961C92CE01C1969CA38BA3E0
:1026C000BE016F5F7F4F40970E9448118C01892B9C
:1026D00009F58981882361F18C8584FD29C0CE01AB
:1026E00001960E94190FF701668F778F80A391A33F
:1026F000CE014D960E94BD0ED7015A966D937D93E3
:102700008D939C935D97F701168A178A108E118E10
:1027100081E08183C801EC960FB6F894DEBF0FBE4E
:10272000CDBFDF91CF911F910F91FF90EF90089552
:1027300003E010E0EFCF0F931F93CF93DF93CDB75C
:10274000DEB7AC970FB6F894DEBF0FBECDBF8C01DD
:10275000AB018091C5039091C60325E030E0892B41
:1027600029F1CE018196D80113969C938E931297EE
:10277000BE016F5F7F4FC8010E9448119C01892BE9
:10278000A9F48981882371F08C8523E030E084FFEF
:102790000DC0CE0101960E94190FF8016483758364
:1027A00086839783C8010E94490F9C01C901AC969A
:1027B0000FB6F894DEBF0FBECDBFDF91CF911F9152
:1027C0000F910895CF92DF92EF92FF920F931F9394
:1027D000CF93DF93CDB7DEB7AC970FB6F894DEBFDB
:1027E0000FBECDBF7C016B018091C5039091C603E4
:1027F00025E030E0892B81F0CE018196D701139638
:102800009C938E93129723E030E0672B09F043C02E
:10281000C7010E94490F9C01C901AC960FB6F894FC
:10282000DEBF0FBECDBFDF91CF911F910F91FF9003
:10283000EF90DF90CF900895F701208131812F70C4
:10284000332785E0220F331F8A95E1F700E210E07D
:10285000CE0101960E94B00D892B09F043C08981F9
:10286000882309F442C09C85853E21F08E3211F008
:1028700093FF20C0C7010E946B109C01892B59F067
:10288000D7011C961D921D921D921C921F972330FA
:10289000310511F60FC0D7011C964D915D916D91D8
:1028A0007C911F97411551056105710529F6211588
:1028B000310531F78601075F1F4FF7018485958544
:1028C000A685B785892B8A2B8B2B91F4F801108272
:1028D000C7010E946B109C01039709F09DCF30E067
:1028E00020E09ACF21E030E0CBCF23E030E0C8CF2A
:1028F000DE01119696012F5E3F4F8D91803249F097
:10290000853009F485EEF8018193E217F30771F53C
:1029100089018985803281F0F8018EE28193DE01A0
:102920001996C80104968F012D91203229F0219328
:10293000E817F907C1F78C018C85F6018087CE0175
:102940004D960E94BD0ED6016D937D938D939C9301
:102950001397898D9A8D15969C938E9314978F89D2
:10296000988D17969C938E931697B0CF8F01C5CFF5
:10297000CF93DF9300D000D0CDB7DEB7E091C50391
:10298000F091C603868D978DA0A1B1A189839A830A
:10299000AB83BC83BC01CD010F900F900F900F90C3
:1029A000DF91CF910C94D10ECF92DF92EF92FF92F4
:1029B000CF93DF93C091C503D091C603CE8CDF8C3B
:1029C000E8A0F9A0C114D104E104F10449F481E0C4
:1029D00090E0DF91CF91FF90EF90DF90CF9008953E
:1029E000A895C701B6010E94900F462F572FBC0132
:1029F0008E819F81A885B985481759076A077B078B
:102A000020F040E050E060E070E08FEFC81AD80A94
:102A1000E80AF80AC416D506E606F70619F46A01AC
:102A20007B01D0CF81E0452B462B472B89F280E0FC
:102A3000CFCF8EE191E00C943F0280918B018C7F8F
:102A400080938B0180918B018B7F80938B0183E737
:102A500091E00C943F054D9906C089B18295817033
:102A600091E08927089580E008951DB88FE08EB920
:102A700088E199E20FB6F894A895809360000FBEA4
:102A80009093600040E052EC61E070E080E091E003
:102A90000E942D088AEA93E00E94EC06D8E1A895EE
:102AA000C0918B01C3708BE891E00E942B1590E0E0
:102AB000C817190651F18BE891E00E942B15982F49
:102AC000937080918B018C7F892B80938B018BE895
:102AD00091E00E942B15C82F60E473E080E091E044
:102AE0000E949F088C2F8150990B9C01D29FC0019E
:102AF000D39F900D11248D589E4F0E94E6056BE3E5
:102B000073E080E091E00E949F088091C00087FF01
:102B1000C6CF8AEA93E00E940F07C1CF1092AB03A1
:102B20001092AA030895AA1BBB1B51E107C0AA1F5C
:102B3000BB1FA617B70710F0A61BB70B881F991F5E
:102B40005A95A9F780959095BC01CD010895A1E211
:102B50001A2EAA1BBB1BFD010DC0AA1FBB1FEE1F17
:102B6000FF1FA217B307E407F50720F0A21BB30B62
:102B7000E40BF50B661F771F881F991F1A9469F7DE
:102B800060957095809590959B01AC01BD01CF013A
:102B900008950E94DA15A59F900DB49F900DA49FF3
:102BA000800D911D11240895EE0FFF1F0590F491E3
:102BB000E02D0994A29FB001B39FC001A39F700DA7
:102BC000811D1124911DB29F700D811D1124911D35
:102BD0000895FB01DC0105900D920020E1F70895B6
:102BE000DC0101C06D9341505040E0F70895FB01B6
:102BF000DC010D900020E9F7119701900D92002063
:102C0000E1F70895FB01DC018D910190801901101D
:102C1000D9F3990B08954532510520F4423010F054
:102C20000C941616FB011082CB010895BB274A3085
:102C300031F4992322F4BDE2909581959F4F0C9435
:102C40002216BB27FB015527AA27880F991FAA1F09
:102C5000A41710F0A41B83955051B9F7A05DAA33B7
:102C600008F0A95DA193009779F7B111B193119282
:102C7000CB010C943B16DC01FC01672F719177238B
:102C8000E1F7329704C07C916D9370836291AE1727
:0A2C9000BF07C8F30895F894FFCFC2
:102C9A001A010000004832530066646472647924A1
:0E2CAA0000456A74240000000000F1070808CD
:00000001FF
